:020000040800F2
:1000000048ED0020DD01000889680008AD1D0008EA
:10001000AF650008E9140008717D000800000000C9
:100020000000000000000000000000004501000882
:10003000C11900080000000089010008A973000828
:10004000F7010008F7010008F7010008F7010008B0
:10005000F7010008F7010008711A0008F70100080D
:10006000F7010008F7010008851A0008F7010008E9
:10007000F7010008F7010008F7010008F701000880
:10008000F7010008F7010008F7010008F701000870
:10009000F7010008F7010008F7010008F701000860
:1000A000F7010008F7010008F7010008F701000850
:1000B000F70100083D740008F7010008F701000887
:1000C000F7010008F7010008F7010008F701000830
:1000D000F70100080178000869790008B97A00087A
:1000E000F7010008F7010008F7010008F701000810
:1000F000F7010008F7010008F7010008F701000800
:10010000F7010008F7010008F7010008F7010008EF
:10011000CD760008F701000815750008F701000802
:10012000F7010008F7010008F7010008F7010008CF
:10013000DFF80CD000F002FF00480047B9190208B0
:1001400048ED0020224B19680868B0E8F00F80F3F2
:100150000988BFF36F8F4FF0000080F311884EF0D5
:100160000D0E70470000000006480068006880F32C
:10017000088862B661B6BFF34F8FBFF36F8F00DFA1
:1001800000BF00BF08ED00E0EFF30980BFF36F8F01
:100190000F4B1A6820E9F00F106008B54FF0BF0050
:1001A00080F31188BFF34F8FBFF36F8F28F090FF5C
:1001B0004FF0000080F31188BDE808401968086816
:1001C000B0E8F00F80F30988BFF36F8F704700BF6E
:1001D000E8000020EFF305807047000006488047E4
:1001E00006480047FEE7FEE7FEE7FEE7FEE7FEE71C
:1001F000FEE7FEE7FEE7FEE7DD73000831010008D9
:100200002DE9F05F0546002092469B46884606464B
:10021000814640241BE0284641464746224600F0DE
:1002200068FB53465A46C01A914110D311461846EE
:10023000224600F04FFB2D1A67EB01084F4622467D
:100240000120002100F046FB17EB00094E41201E63
:10025000A4F10104DFDC484631462A464346BDE8A6
:10026000F09FA0F14101192900D82030704700000B
:10027000014610B509683C22B1FBF2F302FB1313EF
:10028000B1FBF2F11D480360B1FBF2F302FB131363
:10029000B1FBF2F118224360B1FBF2F302FB13133E
:1002A000B1FBF2F183600A1D0723B2FBF3F403FBF9
:1002B000142282618A0040F2B55102F66C32B2FB20
:1002C000F1F344334361B2FBF1F301FB13218908DD
:1002D000C1613B2903D3027D920700D0491C002253
:1002E000074C13460261E25C8A4203D8891A5B1C00
:1002F0000361F8E7491CC16010BD000018BD002073
:1003000034AA070810B540EA01040346A40703D045
:1003100009E010C9121F10C3042AFAD203E011F831
:10032000014B03F8014B521EF9D210BDD2B201E0CD
:1003300000F8012B491EFBD270470022F6E710B5EA
:1003400013460A4604461946FFF7F0FF204610BD43
:1003500030B505462A460B4612F8010B13F8014B3F
:1003600008B1A042F8D01CB1002802D06D1CF1E702
:10037000284630BD10B5044604E00B7800F8013B78
:1003800003B1491C521EF8D2204610BDCAB2401E0D
:1003900010F8011F8A4202D00029F9D100207047CD
:1003A000421C10F8011B0029FBD1801A704710B5C0
:1003B000002200E0521C835C8C5CA34201D1002B24
:1003C000F8D1D8B2E1B2401A10BD30B504460020D1
:1003D000034600E05B1C934203D2E05CCD5C401B13
:1003E000F8D030BD034611F8012B00F8012B002A8C
:1003F000F9D11846704730B505460020034600E0A5
:100400005B1C934205D2EC5CC85C201A01D1002C25
:10041000F6D130BD70B5064607F0FAFE0468054611
:100420000A220021304600F0A5FC2C6070BD2DE9A9
:10043000FE4F804681EA0300C00F0C46009021F079
:10044000004123F00045B8EB0200A94105D2404627
:10045000214690461C460B46024623F000401043BE
:1004600047D0270DC7F30A00C3F30A510290401A80
:10047000019040286BDAC3F3130040F4801B00980E
:10048000924620B10023D2EB030A63EB0B0B0198D9
:100490005946C0F14002504600F01CFA06460D468F
:1004A00050465946019A00F034FA10EB08006141B9
:1004B000002487EA115284EAE7731A4340D0009A75
:1004C00062B3019A012A4FEA075215DC001B61EB67
:1004D00002014FF0004202EA0752CDE90042001C3F
:1004E00041F5801132462B4600F0C2FC03B0BDE856
:1004F000F08F40462146F9E7001B61EB0201001C2A
:1005000041F5801300185B412018A2F5001747EB56
:10051000030140EAD570B6196D4111E06D084FEA4C
:10052000360645EAC0754FEA0752001B61EB02012F
:10053000001C41F5801149084FEA30000019514173
:1005400032462B4603B0BDE8F04F00F082BC009865
:10055000012240000023D0EB020263EBE07300981D
:1005600021464FEAE074B8EB000061EB0401E9E7D3
:1005700083F000435BE781F0004158E72DE9FE4F2F
:1005800081EA030404F0004421F0004100944FF09C
:10059000000B23F0004350EA01045ED052EA03044A
:1005A0005BD0C3F30A54C1F30A552C44A4F2F334CC
:1005B0000194A0FB0254C1F3130141F48011C3F371
:1005C000130343F4801301FB024400FB034E840A2F
:1005D000970A44EA815447EA8357A4FB07680295C7
:1005E0008D0A05FB07854FEA932C04FB0C54270565
:1005F000029D4FEA065847EA1637B5EB08056EEB41
:10060000070C870E920E47EA811742EA8312A7FB76
:100610000201B6EB0B0164EB00042B0D43EA0C3333
:100620005E1844EB1C50DA465146E7FB0201C5F365
:1006300013044FEA0B3343EA14534FEA0432019C8C
:1006400043EA0603A4F10C040294009CCDE900B433
:1006500000F00EFC03B0BDE8F08F00200146F9E782
:100660002DE9F04D81EA030404F0004B21F0004530
:1006700014464FF0000A23F0004150EA050220D052
:1006800054EA01021DD0C5F30A570246C5F313030D
:10069000C1F31300C1F30A5640F4801543F48013EC
:1006A000A7EB0608101BD64608F2FD3873EB0500D1
:1006B00002D308F1010801E092185B41B8F1000F84
:1006C00003DA00200146BDE8F08D00204FF48011D0
:1006D000064684460EE0171B73EB050705D3121B75
:1006E00063EB050306434CEA010C49084FEA30006E
:1006F00092185B4150EA0107EDD152EA030012D093
:1007000082EA040083EA0501084305D0101BAB41CF
:1007100006D20122002306E000224FF0004302E04F
:100720006FF0010253101AEB06004CEB085110EB6E
:100730000A0041EB0B01BDE8F04D00F08ABB0EB59D
:10074000C10F80EAE0700844CA07002140F2334339
:100750008DE80E000A460B4600F08AFB03B000BD90
:100760000EB540F2334102910021CDE900110A4655
:100770000B4600F07DFB03B000BD70B5C1F30A521B
:1007800001F000450024C1F3130140F2FF3341F4AE
:1007900080119A4201DA002070BD40F233439A4240
:1007A000A2F2334203DC524200F0A3F800E0904092
:1007B0002C43F1D0404270BDC1F30A5210B5C1F3D1
:1007C000130140F2FF3341F480119A4201DA002014
:1007D00010BD40F233439A42A2F2334203DC52424C
:1007E00000F087F810BD904010BD00F0004230F0DE
:1007F00000400AD0C10D01F56071C0F3160042EA55
:100800000151C2084007114370470020014670475C
:1008100030B5041E71F1000404DB4FF00044404287
:1008200064EB0101141E73F1000405DB1C464FF05C
:100830000043524263EB04038B4208BF824230BD47
:1008400030B5041E71F1000404DB4FF00044404257
:1008500064EB0101141E73F1000405DB1C464FF02C
:100860000043524263EB0403994208BF904230BDFB
:1008700001F0004330B421F0004150EA010206D0FB
:100880000A0DA2F56072C1F31301002A02DC30BC2C
:1008900000207047440F44EAC104C100E01830BC96
:1008A00000EBC25000F09EBA30B50B460146002066
:1008B0002022012409E021FA02F59D4205D303FA22
:1008C00002F5491B04FA02F52844151EA2F10102A3
:1008D000F1DC30BD202A04DB203A00FA02F10020CE
:1008E00070479140C2F1200320FA03F3194390406E
:1008F0007047202A04DB203A21FA02F000217047D9
:1009000021FA02F3D040C2F1200291400843194677
:100910007047202A06DBCB17203A41FA02F043EA5F
:10092000E07306E041FA02F3D040C2F120029140A8
:1009300008431946704700002DE9FF4F087883B03F
:100940009946FF2805D0491C2D2804D000240020FA
:1009500008E000200BE00124F9E700EB800003EB46
:100960004000491C0B78FF2BF7D104B14042002313
:100970000293147819461D462D2C01D02B2C04D13E
:10098000521C2D2C13D000240294AA461478FF2C5C
:100990000FD00A25A3FB057801FB05814FF0000C61
:1009A00003FB0C11521CE3194AEB0101EEE7012491
:1009B000EAE7814453EA010002D019F5C87F06DA5C
:1009C00003980021C0E9001107B0BDE8F08F0025B1
:1009D000AE4E2F46DFF8B882184600F02BFBCDE96B
:1009E0000001B9F1000002DAC9F1000400E0044698
:1009F0000023A74A1AEB030B42EB045A12E0E0076C
:100A000007D02A46334638464146FFF7B7FD07462A
:100A100088462A46334610461946FFF7AFFD05467D
:100A20000E466410002CEAD1DDE90001B9F1000F97
:100A30005A46534606DAFFF713FE3A464346FFF797
:100A40000FFE05E0FFF79AFD3A464346FFF796FD95
:100A5000029A0AB181F00041039AC2E90001B3E7AA
:100A60002DE9FF4F1F468DB0D7E901464FF0FF3803
:100A70002E2045464FF000090B90B9696D1C0E9869
:100A80008847396A824688470028F6D1BAF1FF3F85
:100A90000AD024F4D064002E11DDBAF12B0F08D057
:100AA000BAF12D0F0BD102E0404611B08DE744F4AE
:100AB0008064B9696D1C0E9888478246761E694627
:100AC000600501D52D2000E02B208DF8000001F1FC
:100AD000010B0DF1200809E0B9696D1C0E988847DB
:100AE00082460F9844F40074761E0560002E02DDE5
:100AF000BAF1300FF0D00B998A453ED144F0800412
:100B000006E00F99681CA9F1010944F4007408601B
:100B1000B9696D1C761E0E98884782463028F0D041
:100B20002BE00B998A4505D1200603D444F08004BC
:100B3000761E18E0504607F0B4FC08B30DF113011F
:100B4000761E44F400748B4508D2AAF130000BF8ED
:100B5000010B200607D5A9F1010003E0200602D40D
:100B600009F101008146A00502D50F99681C0860B3
:100B7000B9696D1C0E9888478246002ED1DC53E07F
:100B8000002E51DDBAF1650F02D0BAF1450F4BD1FD
:100B9000A00549D5B9696D1C24F44074761E0E98E1
:100BA00088478246002E0CDD2B2804D0BAF12D0F89
:100BB00007D144F48074B9696D1C0E988847824649
:100BC000761EE00501D52D2100E02B2108F8011B40
:100BD000CDF82C8021E00DF12901761E44F400743B
:100BE00088450CD2AAF1300010F0FF0088F8000010
:100BF00002D10B99884509D908F1010806E0E00502
:100C000001D5244801E042F20F708146B9696D1C9C
:100C10000E98884782460F980560002E04DD5046E6
:100C200007F03FFC0028D6D1F9690E988847FF20CD
:100C30008BF8000088F800000020069007904B46D3
:100C40006A4608A906A8FFF777FEA00502D46FF050
:100C500001002AE714F0240F0AD0E00714D1DDE9DF
:100C600006123868031D3B600068C0E900120BE003
:100C7000DDE90601FFF7FCFD0146E00704D1386815
:100C8000021D3A600068016028460EE7000014402B
:100C90000000F03FF1D8FFFF426842B1016811F84F
:100CA000013B23B1521EC0E90012184670470121D2
:100CB000C160881E704742685AB1C368016843B971
:100CC00083688B4205D0491E521CC0E900120020E7
:100CD00070474FF0FF3070470FB4002300B589B064
:100CE0000CA900910B996FF00042CB601E4B06934C
:100CF0001E4B07930423CDE901321D4A0892024698
:100D00006B460020FFF7ACFE09B05DF814FB70B530
:100D100086B006464FF0FF300091CDE9010100207A
:100D200015460C4604903246694604A8FFF7D4FFE6
:100D300002460498211825B108B1084600E0204673
:100D40002860049800280DD0002A02DD009888420F
:100D500008D0081B0094CDE901043246694604A876
:100D6000FFF7BAFF06B070BD990C0008B70C000879
:100D7000690F00082DE9F04791460F46804604466A
:100D8000002614F8015B2DB100F0EAF80068405D20
:100D9000C007F6D12B2D02D02D2D18D0641E4A4647
:100DA0003946204600F0F7F827B13968A14201D151
:100DB000C7F8008071054FF002040BD540420028AF
:100DC00003DD07F025FA0460A007BDE8F08746F4CC
:100DD0008066E4E70028F8DA07F01AFA04606FF09A
:100DE0000040F2E70029A8BF7047401C490008BF37
:100DF00020F00100704710B4B0FA80FC00FA0CF04B
:100E000050EA010404BF10BC704749B1CCF1200482
:100E100021FA04F411FA0CF118BF0121214308430F
:100E2000A3EB0C01CB1D4FEA00614FEA102042BF3B
:100E3000002010BC704700EBC35010440029A4BF31
:100E400010BC7047401C490008BF20F0010010BCD6
:100E5000704710B5141E73F1000408DA401C41F10C
:100E6000000192185B411A4301D120F0010010BD2E
:100E70002DE9F04D92469B4611B1B1FA81F202E0A4
:100E8000B0FA80F220329046FFF724FD04460F4668
:100E900040EA0A0041EA0B0153465A46084313D080
:100EA000114653EA010019D0C8F140025046FFF73D
:100EB00020FD05460E46504659464246FFF70AFDBC
:100EC000084305D0012004E020463946BDE8F08DF6
:100ED0000020054346EAE0762C4337430A98630531
:100EE000E40AA0EB08000022FD0A44EA47540A3055
:100EF00002D500200146E9E7010510196941DDE945
:100F0000084500196941BDE8F04DA2E7C1F30A5256
:100F1000C1F3130140F2FF3341F480119A4202DA27
:100F200000200146704740F233439A42A2F2334216
:100F300002DC5242FFF7DDBCFFF7CCBC064C074D8C
:100F400006E0E06840F0010394E807009847103499
:100F5000AC42F6D3FFF7F0F8E8AD070808AE070893
:100F600000487047C4AA070810B50446FFF7F8FF09
:100F70000068005D00F0010010BD3A2800D2303852
:100F800020F02002412A01D3A2F13700884201D388
:100F90004FF0FF3070472DE9F05F82460078002760
:100FA00015468B460AF10104B946302801D09DB19F
:100FB00013E014F8010B0127782803D0582801D03A
:100FC00045B10AE00DB1102D07D10027102514F806
:100FD000010B02E0082500E00A250026B0460EE0DD
:100FE00005FB080005FB06F1012701EB10461FFA7F
:100FF00080F8B6F5803F00D3B94614F8010B2946B6
:10100000FFF7BBFF0028EBDABBF1000F05D00FB1F3
:10101000641E00E05446CBF80040B9F1000F06D042
:1010200007F0F6F802210160C81EBDE8F09F48EA0B
:101030000640FAE70EB540F2334202920022CDE9B3
:1010400000221346FFF714FF03B000BD70B58C18E3
:1010500010F8015B15F0070301D110F8013B2A11CC
:1010600006D110F8012B03E010F8016B01F8016BB9
:101070005B1EF9D12B0705D40023521E0DD401F8B5
:10108000013BFAE710F8013BCB1A921C03E013F87E
:10109000015B01F8015B521EF9D5A142D8D30020B3
:1010A00070BD000000B587B00121142005F03AFDA5
:1010B000002006908DF81B002020ADF8180006A92E
:1010C0002F4800F0CDFD0220ADF8180006A92D48EC
:1010D00000F0C6FD0121480205F024FD4FF4404018
:1010E00005F0F4FC142101A8FFF727F901208DF881
:1010F0000900002004904FF460200390002001902C
:1011000003208DF8140001208DF8080001A91E4865
:1011100000F09EF80023012205211B4800F0C0F8D2
:10112000002302220B21184800F0BAF80023032202
:101130001021154800F0B4F80121134800F05EF8C2
:10114000114800F009F900BF0F4800F077F80128B6
:10115000FAD00D4800F010F900BF0B4800F064F819
:101160000128FAD008484C3000680849088000F08F
:101170000FF80121044800F0F4F807B000BD0000AA
:101180000008014000100140002401407C000020C4
:1011900000B58BB00121164800F03BF8012108464C
:1011A00005F0A0FC2C216846FFF7C7F80320039048
:1011B000002002900A900F4801904FF48060079041
:1011C000802005902020089009484C300090801520
:1011D0000690002004904FF440500990694606485C
:1011E00000F0D0FB0121044800F0C0FB0BB000BDB3
:1011F00000240140B00300200800024021B18268B1
:1012000042F00102826003E0826822F00102826003
:10121000704721B1826842F48072826003E0826884
:1012200022F4807282607047014600208A6802F0D2
:1012300004020AB1012000E00020704701460020AE
:101240008A6802F008020AB1012000E0002070471D
:1012500030B502460020002350680F4C20400D7925
:101260000C6844EA05242043506090680B4C2040F1
:10127000D1E902542C434D7944EA4504204390605F
:10128000D06A20F470000C7C641EE4B2234340EA70
:101290000350D06230BD0000FFFEF0FFFDF7F1FF0C
:1012A000F0B504460D4600200021092D11DDE0684F
:1012B000A5F10A0606EB4607072606FA07F188435A
:1012C000A5F10A0606EB460603FA06F10843E060BC
:1012D0000CE0206905EB4507072606FA07F188436D
:1012E00005EB450603FA06F108432061072A0FDAE9
:1012F000606B561E06EB86071F2606FA07F1884329
:10130000561E06EB860605FA06F10843606322E0E6
:101310000D2A0FDA206BD61F06EB86071F2606FA6A
:1013200007F18843D61F06EB860605FA06F1084347
:10133000206310E0E06AA2F10D0606EB86071F2687
:1013400006FA07F18843A2F10D0606EB860605FAB8
:1013500006F10843E062F0BD816841F00801816058
:10136000704721B1826842F4A002826003E0826883
:1013700022F4A00282607047816841F0040181601C
:10138000704700002DE9F05F1048408810498881BF
:101390000E48008848810D498888FFF7E1F98046AA
:1013A0000C4A0D4BFFF7E7F806464FF033320B4B74
:1013B000FFF756F904460022094BFFF738F882463A
:1013C000FFF756FA02490861BDE8F09FB00300201C
:1013D000D0030020E17A14AE47E1F63F33331140E9
:1013E00000003940F0B5ADF5017D07460025002627
:1013F00000244FF4007101A8FEF79FFF38460CF05F
:1014000098FE0546002D33D01CA128460CF07AFE2C
:101410000646002E2CD01BA130460CF073FE04466D
:101420001CB11BA0616906F0CFFE1D4901A86269CD
:1014300006F0DAFE207D1B49087005F017F9606997
:1014400001280BD100220421174800F0AAFC002239
:101450004FF48071154800F0A4FC09E0012204213A
:10146000114800F09EFC01221102104800F099FC86
:1014700028460CF01BFE0DF5017DF0BD7061726118
:101480006D7300004C454453776974636800000035
:101490004C45445377697463683A25640D0A00002B
:1014A00048AC0708BC0000200018014000080140BB
:1014B00008B50146002000900348009000980844B9
:1014C00000900098008808BD006C004008B500221C
:1014D0000092044A0092009A02440092009A11601D
:1014E00008BD0000006C004000BFFEE7C2B000264F
:1014F00000204190002400254FF4807101A8FEF7E0
:101500001CFFB1E05948007810B905F0F7F90CE07C
:1015100056480078012808D155480078012802D1A2
:1015200006F0FCFD01E005F045F8524800885149FD
:10153000498888421BDD00204E4908804B480078CE
:10154000022809D105F044F900204B49A1F85806BA
:101550000320464908700AE044480078032806D171
:1015600005F084F8322027F049FC05F013F93F48D4
:10157000007803286FD100203F49A1F8580608469B
:101580000078302808D0902802D0D02859D154E0D3
:101590003AA006F019FE54E03CA006F015FE41A961
:1015A0003548401C04F0DCFF06469DF80401801C11
:1015B0003149095C9DF80401401C2F4A105C41EA46
:1015C00000249DF80401C01C8118224601A8FEF7E2
:1015D00099FE29480094017833469DF804212F484C
:1015E00006F0F2FD01A92EA006F0EEFD01A92FA044
:1015F000FEF7DDFE98B93BA006F0E6FD9DF804116C
:10160000C91C1D4A88183EA1FEF7A2FE05462946C0
:101610003CA006F0D9FD2846FFF7E4FE07E001A94B
:101620003CA0FEF7C4FE10B949A006F0CDFD4FF472
:10163000807101A8FEF781FE03E04AA006F0C4FD18
:1016400000BF00BF4FF480610B48FEF776FE00201C
:101650000949A1F85A0605480078042801D106F086
:10166000F7FB0A2027F0CAFB4CE70000B50000207A
:10167000B70000203000002056040020CAD5B5BDB8
:10168000B6A9D4C4BBD8B8B40D0A0000C6BDCCA856
:10169000B7A2B2BCCFFBCFA20D0A0000C8AA0708B0
:1016A000746F7069633A25730D0A00002F737973A4
:1016B0002F6B3032766851724966754B2F446576D0
:1016C000696365393032352F7468696E672F7365C9
:1016D00072766963652F70726F70657274792F739B
:1016E00065740000CAD5B5BDCFC2D0D0C9E8D6C395
:1016F000B1A8CEC42CBFAACABCBDE2CEF60D0A006A
:101700007B0000007061796C6F6164A3BA25730D72
:101710000A0000002F7379732F6B30327668517294
:101720004966754B2F446576696365393032352FCC
:101730007468696E672F6576656E742F70726F704E
:10174000657274792F706F73745F7265706C790055
:10175000CAD5B5BDB7A2B2BCD3A6B4F0B1A8CEC4A9
:101760000D0A0000D0C4CCF8BBD8B8B40D0A0000F4
:101770001CB5694601A800F039F8012806D10549D1
:10178000019808609DF80000087102E002A006F0D0
:101790001BFD1CBD740000204448543131BBF1C80E
:1017A000A1CAFDBEDDCAA7B0DC0D0A0038B50446EB
:1017B0000121080205F0B6F9002000904FF4006006
:1017C000ADF8000003208DF802001CB910208DF840
:1017D000030004E0012C02D104208DF803006946C7
:1017E000014800F03DFA38BD002001402DE9F04FDE
:1017F00087B0064689460024002500200590069003
:10180000FFF7D4FF00224FF40061564800F0C9FAF8
:10181000122000F0D6F80122D102524800F0C1FA9D
:101820000120FFF7C3FF00BF4FF400614D4800F0F7
:10183000A2FA0128F8D000BF4FF40061494800F037
:101840009AFA0028F8D0002432E000252DE000BFED
:101850004FF40061434800F08EFA0128F8D000BF31
:101860004FF400613F4800F086FA0028F8D01E20AF
:1018700000F0B0F84FF400613A4800F07CFA01281B
:1018800009D105A8005DC5F1070201219140084377
:1018900005A9085508E005A8005DC5F1070201216A
:1018A0009140884305A908556D1C082DCFDB641CA9
:1018B000052CCADB9DF814009DF8151008449DF80E
:1018C000161008449DF8171008449DF81810884217
:1018D00046D19DF8170000F07F0004909DF8170096
:1018E00000F0800000281BDD0498FEF728FF8246E8
:1018F00000221D4BFEF7B4FE074688469DF81600F1
:10190000FEF72EFF3A464346CDE90001FEF78FFD74
:1019100081F00041CDE90201FEF7AAFF306017E037
:101920000498FEF70CFF074600220F4BFEF798FEC7
:10193000CDE900019DF81600FEF712FF8246DDE9B1
:101940000023FEF774FDCDE90201FEF791FF306040
:101950009DF8140089F80000012007B0BDE8F08F61
:101960000020FAE7002001400000244021B1026875
:1019700042F00102026004E002684FF6FE731A4072
:101980000260704710B50022026847F6F0739A4370
:101990000C6A8B6823430C6923434C6923438C698D
:1019A0002343CC6923434C6A23438C6A23431A4361
:1019B0000260CB6843600B6883604B68C36010BDF6
:1019C000704700B503464FF47A7103FB01F000F055
:1019D00001F800BD47E000BF00BF00BF00BF00BF6F
:1019E00000BF00BF00BF00BF00BF00BF00BF00BFFF
:1019F00000BF00BF00BF00BF00BF00BF00BF00BFEF
:101A000000BF00BF00BF00BF00BF00BF00BF00BFDE
:101A100000BF00BF00BF00BF00BF00BF00BF00BFCE
:101A200000BF00BF00BF00BF00BF00BF00BF00BFBE
:101A300000BF00BF00BF00BF00BF00BF00BF00BFAE
:101A400000BF00BF00BF00BF00BF00BF00BF00BF9E
:101A500000BF00BF00BF00BF00BF00BF00BF00BF8E
:101A600000BF00BF00BF011EA0F10100B3D170474D
:101A700010B5012000F022F8012801D100F018F87B
:101A800010BD00000848006800F0100058B106487A
:101A9000006840F01000044908600448006880F0C5
:101AA0000400024908607047140401400C1801400A
:101AB00001490860704700001404014001460020FD
:101AC0000022074B1B6803EA0102054B14331B6815
:101AD0000B4013B10AB1012000E000207047000064
:101AE0000004014051B18200A2F1C042126842F0EC
:101AF00001038200A2F1C042136009E08200A2F15A
:101B0000C0421268034B1A408300A3F1C0431A601D
:101B100070470000FEFF0F00D0E901121143C268B8
:101B20001143026911434269114382691143C26939
:101B30001143026A1143426A1143826A1143C26A25
:101B40001143026B114302689200A2F1C04211607E
:101B5000816808290BD101688900A1F1C041096899
:101B600041F0400201688900A1F1C0410A60416B67
:101B70000968426B526841EA0211426B926841EA7D
:101B80000221426B928941EA0241426B128A41EA88
:101B90000251426B127D41EA0261426B926911432C
:101BA0000268521C9200A2F1C0421160C16AB1F5F4
:101BB000804F1BD1816B0968826B526841EA021128
:101BC000826B926841EA0221826B128A41EA0251D9
:101BD000826B127D41EA0261826B92691143026855
:101BE0009200A2F1C042C2F8041107E06FF0704207
:101BF00001688900A1F1C041C1F8042170470000CB
:101C000010B5C0B04FF480716846FEF796FB002413
:101C100022F0E2F9044621460AA006F0D5FA0B4864
:101C200022F08EF90622094909A022F037FA06228D
:101C30000649684622F0A6F9694607A006F0C4FAEC
:101C400040B010BD2523780D0A000000FD000800FB
:101C50004348494E4100000025730D0A0000000072
:101C60002DE9F04102460025002600200023002433
:101C7000002791F803C00CF00F0591F803C00CF099
:101C8000100CBCF1000F03D091F802C04CEA05051E
:101C900091F800C0BCF1000F31D0146800202BE097
:101CA0004FF0010C0CFA00F3B1F800C00CEA030687
:101CB0009E4220D183004FF00F0C0CFA03F7BC4377
:101CC00005FA03FC4CEA040491F803C0BCF1280FA8
:101CD00006D14FF0010C0CFA00FCC2F814C00AE067
:101CE00091F803C0BCF1480F05D14FF0010C0CFA7C
:101CF00000FCC2F810C0401C0828D1D31460B1F811
:101D000000C0BCF1FF0F34DD546800202EE000F16C
:101D1000080C4FF0010808FA0CF3B1F800C00CEA07
:101D200003069E4221D183004FF00F0C0CFA03F7FB
:101D3000BC4305FA03FC4CEA040491F803C0BCF16F
:101D4000280F05D100F1080C08FA0CF8C2F814802D
:101D500091F803C0BCF1480F07D100F1080C4FF017
:101D6000010808FA0CF8C2F81080401C0828CED3ED
:101D70005460BDE8F0810246002093680B400BB12F
:101D8000012000E00020704702460020D3680B408D
:101D90000BB1012000E000207047416170470161F4
:101DA00070470AB1016100E04161704700BFFEE782
:101DB00000254FE000F006F90546052D45D2DFE885
:101DC00005F00304172A370040E000240DE0224903
:101DD00008681EF063FC20490022C86821B213F095
:101DE0008FFF1E2027F00AF8641C642CEFDB2DE027
:101DF00040211A48FFF7D1FF4FF4FA70FFF7E1FDD9
:101E000040211648FFF7CBFF042015490870002039
:101E1000144908701AE014A006F0D6F90E490868B3
:101E20001EF03CFC01211448006827F0F0F90DE099
:101E300012A006F0C9F9084908691EF02FFC02211A
:101E40000D48006827F0E3F900E000BF00BF0A205A
:101E500026F0D4FFAEE7000088BC00200018014047
:101E6000B5000020B6000020B0B4BCFC33B0B4CF45
:101E7000C2A3A1200A00000024000020B0B4BCFCD2
:101E800034B0B4CFC2A3A1200A00000008B50020DE
:101E900000900121042004F045FE04208DF8030089
:101EA0000120ADF8000069460848FFF7D9FE01217E
:101EB000102004F037FE48208DF803007020ADF8A4
:101EC000000069460248FFF7CBFE08BD000801404C
:101ED000001001402DE9F0412A48008C10B9012082
:101EE000BDE8F081274800885F2809D020212548D7
:101EF000FEF723FA00202349088448840220EFE7F4
:101F00000024002004E01F4931F810100C44401C4C
:101F10000728F8DBE0B21B49C989884203D00020BA
:101F200018490884488417498A88498802EB0120A7
:101F3000FEF705FC0746144A144BFEF71FFB054647
:101F4000FEF796FC124908600E490A89C98802EB1F
:101F50000120FEF7F4FB07460E4A0F4BFEF70EFB7F
:101F60000546FEF785FC0A49486006488189807A63
:101F700001EB0020064908810020024908844884BA
:101F800000BFADE7E40300209A9999999999B93F68
:101F9000D00300207B14AE47E17A843F4FF4165003
:101FA00005F0A8FC0BE04FF0FF310548006827F072
:101FB00011FCFFF78FFF4FF47A7026F01FFFF2E756
:101FC0002000002010B501212C48FFF7D4FE80B17D
:101FD0001420FFF7F6FC01212848FFF7CCFE40B1A2
:101FE00000BF01212548FFF7C6FE0028F9D10120D6
:101FF00010BD10212248FFF7BEFE80B91420FFF764
:10200000E0FC10211E48FFF7B6FE40B900BF1021CA
:102010001B48FFF7B0FE0028F9D00220E8E7202196
:102020001748FFF7A8FE80B91420FFF7CAFC20214B
:102030001348FFF7A0FE40B900BF20211048FFF76A
:102040009AFE0028F9D00320D2E740210C48FFF780
:1020500092FE80B91420FFF7B4FC40210848FFF736
:102060008AFE40B900BF40210548FFF784FE0028E2
:10207000F9D00420BCE70020BAE7000000080140C6
:102080000010014070B504460026174805884088B6
:1020900045431548808846F60401884216D1124807
:1020A0008079012812D100200F4988712A204881A7
:1020B0002B2088810021084603F0AAFE01200A494E
:1020C00088712B2048812A20888103E0002108465E
:1020D00003F09EFE03F07CFF002602E0034804802C
:1020E000761CAE42FAD370BD1A0400200008006CC2
:1020F0002DE9F84F07460D4690469946DDF828B081
:10210000A8EB0700401C1FFA80FAA9EB0500401C51
:1021100080B20090002414E0281981B2384603F000
:1021200077FE03F055FF002607E004FB0A603BF84A
:10213000100006490880701C86B25645F5DB601C0D
:1021400084B200988442E7DBBDE8F88F0008006C99
:1021500010B5FE48808849F2413188427ED1CF20B7
:1021600003F030FF002003F027FFC12003F024FF1D
:10217000302003F021FFED2003F024FF642003F062
:102180001BFF032003F018FF122003F015FF81202E
:1021900003F012FFE82003F015FF852003F00CFF89
:1021A000102003F009FF7A2003F006FFCB2003F094
:1021B00009FF392003F000FF2C2003F0FDFE002072
:1021C00003F0FAFE342003F0F7FE022003F0F4FEE1
:1021D000F72003F0F7FE202003F0EEFEEA2003F0E4
:1021E000F1FE002003F0E8FE002003F0E5FEC02031
:1021F00003F0E8FE1B2003F0DFFEC12003F0E2FE47
:10220000012003F0D9FEC52003F0DCFE302003F0EE
:10221000D3FE302003F0D0FEC72003F0D3FEB7205A
:1022200003F0CAFE362003F0CDFE482003F0C4FEC2
:102230003A2003F0C7FE552003F0BEFEB12003F0A4
:10224000C1FE002003F0B8FE1A2003F0B5FEB62050
:1022500003F0B8FE0A2003F0AFFE00E097E0A220F2
:1022600003F0AAFEF22003F0ADFE002003F0A4FE6E
:10227000262003F0A7FE012003F09EFEE02003F0DD
:10228000A1FE0F2003F098FE2A2003F095FE2820DF
:1022900003F092FE082003F08FFE0E2003F08CFE68
:1022A000082003F089FE542003F086FEA92003F0E5
:1022B00083FE432003F080FE0A2003F07DFE0F2002
:1022C00003F07AFE002003F077FE002003F074FE96
:1022D000002003F071FE002003F06EFEE12003F009
:1022E00071FE002003F068FE152003F065FE172044
:1022F00003F062FE072003F05FFE112003F05CFE96
:10230000062003F059FE2B2003F056FE562003F062
:1023100053FE3C2003F050FE052003F04DFE10203C
:1023200003F04AFE0F2003F047FE3F2003F044FE77
:102330003F2003F041FE0F2003F03EFE2B2003F070
:1023400041FE002003F038FE002003F035FE01209E
:1023500003F032FE3F2003F02FFE2A2003F032FE6E
:10236000002003F029FE002003F026FE002003F0E9
:1023700023FEEF2003F020FE112003F023FE78203F
:10238000FFF71FFB292003F01DFE03F01EB96F4865
:10239000808846F6040188427ED1112003F012FEA7
:1023A0001420FFF70EFBD02003F00CFE072003F0F3
:1023B00003FE422003F000FE1D2003F0FDFDD120AE
:1023C00003F000FE002003F0F7FD1A2003F0F4FDF7
:1023D000092003F0F1FDD22003F0F4FD012003F009
:1023E000EBFD222003F0E8FDC02003F0EBFD102000
:1023F00003F0E2FD3B2003F0DFFD002003F0DCFDF5
:10240000022003F0D9FD112003F0D6FDC52003F012
:10241000D9FD032003F0D0FDC82003F0D3FD002038
:1024200003F0CAFD252003F0C7FD212003F0C4FD01
:10243000052003F0C1FD002003F0BEFD0A2003F0DB
:10244000BBFD652003F0B8FD252003F0B5FD772026
:1024500003F0B2FD502003F0AFFD0F2003F0ACFD00
:10246000002003F0A9FDF82003F0ACFD012003F0EB
:10247000A3FDFE2003F0A6FD002003F09DFD022039
:1024800003F09AFD202003F09DFD362003F09AFD15
:10249000082003F091FD00E02AE03A2003F092FDCD
:1024A000552003F089FD2B2003F08CFD002003F064
:1024B00083FD002003F080FD012003F07DFD3F201F
:1024C00003F07AFD2A2003F07DFD002003F074FD67
:1024D000002003F071FD012003F06EFDDF2003F00A
:1024E0006BFD7820FFF76DFA292003F06BFD4CE7B8
:1024F0001648808845F21031884240F07D87ED20F3
:1025000003F060FD012003F057FDFE2003F054FDB1
:10251000EE2003F057FDDE2003F04EFD212003F0F6
:102520004BFDF12003F04EFD012003F045FDDF20BF
:1025300003F048FD102003F03FFDC42003F042FDEE
:102540008F2003F039FDC62002E000001A040020AD
:1025500003F038FD002003F02FFDE22003F02CFDF6
:10256000E22003F029FDE22003F026FDBF2003F066
:1025700029FDAA2003F020FDB02003F023FD0D204B
:1025800003F01AFD002003F017FD0D2003F014FDE9
:10259000002003F011FD112003F00EFD002003F0D8
:1025A0000BFD192003F008FD002003F005FD21209C
:1025B00003F002FD002003F0FFFC2D2003F0FCFCE3
:1025C000002003F0F9FC3D2003F0F6FC002003F0AE
:1025D000F3FC5D2003F0F0FC002003F0EDFC5D2037
:1025E00003F0EAFC002003F0E7FCB12003F0EAFC72
:1025F000802003F0E1FC002003F0DEFC8B2003F0E0
:10260000DBFC002003F0D8FC962003F0D5FC002072
:1026100003F0D2FCB22003F0D5FC002003F0CCFC88
:10262000002003F0C9FC022003F0C6FC002003F0E8
:10263000C3FC032003F0C0FC002003F0BDFCB3206A
:1026400003F0C0FC002003F0B7FC002003F0B4FC52
:10265000002003F0B1FC002003F0AEFC002003F0EA
:10266000ABFC002003F0A8FC002003F0A5FC002038
:1026700003F0A2FC002003F09FFC002003F09CFC70
:10268000002003F099FC002003F096FC002003F0EA
:1026900093FC002003F090FC002003F08DFC002050
:1026A00003F08AFC002003F087FC002003F084FC88
:1026B000002003F081FC002003F07EFC002003F0EA
:1026C0007BFC002003F078FC002003F075FC002068
:1026D00003F072FCB42003F075FC8B2003F06CFC5B
:1026E000002003F069FC962003F066FC002003F054
:1026F00063FCA12003F060FC002003F05DFCB5202A
:1027000003F060FC022003F057FC002003F054FCAF
:10271000032003F051FC002003F04EFC042003F0E2
:102720004BFC002003F048FCB62003F04BFC0020DB
:1027300003F042FC002003F03FFCB72003F042FC12
:10274000002003F039FC002003F036FC3F2003F0AA
:1027500033FC002003F030FC5E2003F02DFC002051
:1027600003F02AFC642003F027FC002003F024FC83
:102770008C2003F021FC002003F01EFCAC2003F0B1
:102780001BFC002003F018FCDC2003F015FC0020EB
:1027900003F012FC702003F00FFC002003F00CFC8F
:1027A000902003F009FC002003F006FCEB2003F06E
:1027B00003FC002003F000FCDC2003F0FDFB002004
:1027C00003F0FAFBB82003F0FDFB002003F0F4FB5C
:1027D000002003F0F1FB002003F0EEFB002003F0EB
:1027E000EBFB002003F0E8FB002003F0E5FB0020FA
:1027F00003F0E2FB002003F0DFFBBA2003F0E2FB72
:10280000242003F0D9FB002003F0D6FB002003F0C6
:10281000D3FB002003F0D0FBC12003F0D3FB20202A
:1028200003F0CAFB002003F0C7FB542003F0C4FBF5
:10283000002003F0C1FBFF2003F0BEFB002003F0EB
:10284000BBFBC22003F0BEFB0A2003F0B5FB002057
:1028500003F0B2FB042003F0AFFB002003F0ACFB5D
:10286000C32003F0AFFB3C2003F0A6FB002003F0E5
:10287000A3FB3A2003F0A0FB002003F09DFB3920CE
:1028800003F09AFB002003F097FB372003F094FB42
:10289000002003F091FB3C2003F08EFB002003F0AE
:1028A0008BFB362003F088FB002003F085FB3220F1
:1028B00003F082FB002003F07FFB2F2003F07CFB62
:1028C000002003F079FB2C2003F076FB002003F0BE
:1028D00073FB292003F070FB002003F06DFB262022
:1028E00003F06AFB002003F067FB242003F064FB85
:1028F000002003F061FB242003F05EFB002003F0C6
:102900005BFB232003F058FB002003F055FB3C2029
:1029100003F052FB002003F04FFB362003F04CFB8A
:10292000002003F049FB322003F046FB002003F0B7
:1029300043FB2F2003F040FB002003F03DFB2C2045
:1029400003F03AFB002003F037FB292003F034FBAF
:10295000002003F031FB262003F02EFB002003F0C3
:102960002BFB242003F028FB002003F025FB242070
:1029700003F022FB002003F01FFB232003F01CFBCD
:10298000002003F019FBC42003F01CFB622003F0BD
:1029900013FB002003F010FB052003F00DFB0020CB
:1029A00003F00AFB842003F007FB002003F004FB84
:1029B000F02003F001FB002003F0FEFA182003F0E2
:1029C000FBFA002003F0F8FAA42003F0F5FA002047
:1029D00003F0F2FA182003F0EFFA002003F0ECFA0B
:1029E000502003F0E9FA002003F0E6FA0C2003F08F
:1029F000E3FA002003F0E0FA172003F0DDFA0020EC
:102A000003F0DAFA952003F0D7FA002003F0D4FAA5
:102A1000F32003F0D1FA002003F0CEFAE62003F011
:102A2000CBFA002003F0C8FAC52003F0CBFA32201D
:102A300003F0C2FA002003F0BFFA442003F0BCFA0E
:102A4000002003F0B9FA652003F0B6FA002003F085
:102A5000B3FA762003F0B0FA002003F0ADFA882034
:102A600003F0AAFA002003F0A7FAC62003F0AAFA9E
:102A7000202003F0A1FA002003F09EFA172003F0B3
:102A80009BFA002003F098FA012003F095FA002049
:102A900003F092FAC72003F095FA002003F08CFAB5
:102AA000002003F089FA002003F086FA002003F0EA
:102AB00083FAC82003F086FA002003F07DFA002094
:102AC00003F07AFA002003F077FA002003F074FA9A
:102AD000C92003F077FA002003F06EFA002003F01B
:102AE0006BFA002003F068FA002003F065FA00207A
:102AF00003F062FA002003F05FFA002003F05CFAB2
:102B0000002003F059FA002003F056FA002003F0E9
:102B100053FA002003F050FA002003F04DFA002091
:102B200003F04AFA002003F047FA002003F044FAC9
:102B3000002003F041FAE02003F044FA162003F0ED
:102B40003BFA002003F038FA1C2003F035FA00208D
:102B500003F032FA212003F02FFA002003F02CFAC0
:102B6000362003F029FA002003F026FA462003F06D
:102B700023FA002003F020FA522003F01DFA00206F
:102B800003F01AFA642003F017FA002003F014FA95
:102B90007A2003F011FA002003F00EFA8B2003F0E4
:102BA0000BFA002003F008FA992003F005FA002040
:102BB00003F002FAA82003F0FFF9002003F0FCF96B
:102BC000B92003F0F9F9002003F0F6F9C42003F06E
:102BD000F3F9002003F0F0F9CA2003F0EDF900202A
:102BE00003F0EAF9D22003F0E7F9002003F0E4F95A
:102BF000D92003F0E1F9002003F0DEF9E02003F032
:102C0000DBF9002003F0D8F9F32003F0D5F9002018
:102C100003F0D2F9E12003F0D5F9162003F0CCF946
:102C2000002003F0C9F91C2003F0C6F9002003F0CE
:102C3000C3F9222003F0C0F9002003F0BDF93620CB
:102C400003F0BAF9002003F0B7F9452003F0B4F916
:102C5000002003F0B1F9522003F0AEF9002003F098
:102C6000ABF9642003F0A8F9002003F0A5F97A205D
:102C700003F0A2F9002003F09FF98B2003F09CF9E8
:102C8000002003F099F9992003F096F9002003F051
:102C900093F9A82003F090F9002003F08DF9B920F2
:102CA00003F08AF9002003F087F9C42003F084F9C7
:102CB000002003F081F9CA2003F07EF9002003F020
:102CC0007BF9D22003F078F9002003F075F9D820C1
:102CD00003F072F9002003F06FF9E02003F06CF9C3
:102CE000002003F069F9F32003F066F9002003F0F7
:102CF00063F9E22003F066F9052003F05DF9002096
:102D000003F05AF90B2003F057F9002003F054F9AF
:102D10001B2003F051F9002003F04EF9342003F09A
:102D20004BF9002003F048F9442003F045F9002056
:102D300003F042F94F2003F03FF9002003F03CF983
:102D4000612003F039F9002003F036F9792003F00F
:102D500033F9002003F030F9882003F02DF900202A
:102D600003F02AF9972003F027F9002003F024F953
:102D7000A62003F021F9002003F01EF9B72003F08C
:102D80001BF9002003F018F9C22003F015F9002008
:102D900003F012F9C72003F00FF9002003F00CF93B
:102DA000D12003F009F9002003F006F9D62003F042
:102DB00003F9002003F000F9DD2003F0FDF8002006
:102DC00003F0FAF8F32003F0F7F8002003F0F4F82A
:102DD000E32003F0F7F8052003F0EEF8002003F0FD
:102DE000EBF80A2003F0E8F8002003F0E5F81C20D7
:102DF00003F0E2F8002003F0DFF8332003F0DCF802
:102E0000002003F0D9F8442003F0D6F8002003F0A6
:102E1000D3F8502003F0D0F8002003F0CDF8622062
:102E200003F0CAF8002003F0C7F8782003F0C4F8D4
:102E3000002003F0C1F8882003F0BEF8002003F062
:102E4000BBF8972003F0B8F8002003F0B5F8A620EF
:102E500003F0B2F8002003F0AFF8B72003F0ACF8AD
:102E6000002003F0A9F8C22003F0A6F8002003F028
:102E7000A3F8C72003F0A0F8002003F09DF8D120AC
:102E800003F09AF8002003F097F8D52003F094F8A7
:102E9000002003F091F8DD2003F08EF8002003F00D
:102EA0008BF8F32003F088F8002003F085F8E42085
:102EB00003F088F8012003F07FF8002003F07CF88D
:102EC000012003F079F8002003F076F8022003F0E7
:102ED00073F8002003F070F82A2003F06DF800204A
:102EE00003F06AF83C2003F067F8002003F064F870
:102EF0004B2003F061F8002003F05EF85D2003F042
:102F00005BF8002003F058F8742003F055F8002017
:102F100003F052F8842003F04FF8002003F04CF83F
:102F2000932003F049F8002003F046F8A22003F0B4
:102F300043F8002003F040F8B32003F03DF80020F0
:102F400003F03AF8BE2003F037F8002003F034F81D
:102F5000C42003F031F8002003F02EF8CD2003F058
:102F60002BF8002003F028F8D32003F025F80020E8
:102F700003F022F8DD2003F01FF8002003F01CF816
:102F8000F32003F019F8002003F016F8E52003F011
:102F900019F8002003F010F8002003F00DF80020CD
:102FA00003F00AF8002003F007F8022003F004F809
:102FB000002003F001F8292002F0FEFF002002F0BB
:102FC000FBFF3C2002F0F8FF002002F0F5FF4B2051
:102FD00002F0F2FF002002F0EFFF5D2002F0ECFFB4
:102FE000002002F0E9FF742002F0E6FF002002F06A
:102FF000E3FF842002F0E0FF002002F0DDFF9320D9
:1030000002F0DAFF002002F0D7FFA22002F0D4FF86
:10301000002002F0D1FFB32002F0CEFF002002F02A
:10302000CBFFBE2002F0C8FF002002F0C5FFC42085
:1030300002F0C2FF002002F0BFFFCD2002F0BCFF73
:10304000002002F0B9FFD32002F0B6FF002002F00A
:10305000B3FFDC2002F0B0FF002002F0ADFFF32050
:1030600002F0AAFF002002F0A7FFE62002F0AAFF6C
:10307000112002F0A1FF002002F09EFF342002F098
:103080009BFF002002F098FF562002F095FF0020E1
:1030900002F092FF762002F08FFF002002F08CFFFA
:1030A000772002F089FF002002F086FF662002F000
:1030B00083FF002002F080FF882002F07DFF0020C7
:1030C00002F07AFF992002F077FF002002F074FFEF
:1030D000BB2002F071FF002002F06EFF992002F089
:1030E0006BFF002002F068FF662002F065FF002001
:1030F00002F062FF552002F05FFF002002F05CFF4B
:10310000552002F059FF002002F056FF452002F042
:1031100053FF002002F050FF432002F04DFF00203B
:1031200002F04AFF442002F047FF002002F044FF73
:10313000E72002F047FF322002F03EFF002002F0BD
:103140003BFF552002F038FF002002F035FF7620CB
:1031500002F032FF002002F02FFF662002F02CFF69
:10316000002002F029FF672002F026FF002002F075
:1031700023FF672002F020FF002002F01DFF8720C0
:1031800002F01AFF002002F017FF992002F014FF4E
:10319000002002F011FFBB2002F00EFF002002F021
:1031A0000BFF992002F008FF002002F005FF7720B6
:1031B00002F002FF002002F0FFFE442002F0FCFEBD
:1031C000002002F0F9FE562002F0F6FE002002F088
:1031D000F3FE232002F0F0FE002002F0EDFE33208B
:1031E00002F0EAFE002002F0E7FE452002F0E4FED5
:1031F000002002F0E1FEE82002F0E4FE002002F0F0
:10320000DBFE002002F0D8FE992002F0D5FE00205F
:1032100002F0D2FE872002F0CFFE002002F0CCFEAA
:10322000882002F0C9FE002002F0C6FE772002F0DE
:10323000C3FE002002F0C0FE662002F0BDFE0020AA
:1032400002F0BAFE882002F0B7FE002002F0B4FEC1
:10325000AA2002F0B1FE002002F0AEFEBB2002F078
:10326000ABFE002002F0A8FE992002F0A5FE00208F
:1032700002F0A2FE662002F09FFE002002F09CFEFB
:10328000552002F099FE002002F096FE552002F033
:1032900093FE002002F090FE442002F08DFE0020FC
:1032A00002F08AFE442002F087FE002002F084FE35
:1032B000552002F081FE002002F07EFEE92002F09F
:1032C00081FEAA2002F078FE002002F075FE0020A8
:1032D00002F072FE002002F06FFE002002F072FE8B
:1032E000AA2002F069FECF2002F06CFE002002F05E
:1032F00063FE002002F060FE002002F05DFE002070
:1033000002F05AFE002002F057FE002002F054FEA8
:10331000002002F051FE002002F04EFE002002F0DC
:103320004BFE002002F048FE002002F045FE002087
:1033300002F042FE002002F03FFE002002F03CFEC0
:10334000002002F039FE002002F036FE002002F0DC
:1033500033FEF02002F036FE002002F02DFE502059
:1033600002F02AFE002002F027FE002002F024FED8
:10337000002002F021FEF32002F024FE002002F0E3
:103380001BFEF92002F01EFE062002F015FE1020A2
:1033900002F012FE292002F00FFE002002F00CFEC7
:1033A0003A2002F00FFE552002F006FE112002F036
:1033B00009FE6420FEF705FB292002F003FE3520FC
:1033C00002F000FE002002F0F7FD512002F0FAFDAD
:1033D000FF2002F0F1FD532002F0F4FD2C2002F05A
:1033E000EBFD552002F0EEFD822002F0E5FD2C20E1
:1033F00002F0E8FD02F0E9B8FE48808845F210517D
:1034000088427DD155214FF4704002F0EBFDAA2196
:103410004FF2010002F0E6FD52214FF2020002F0ED
:10342000E1FD08214FF2030002F0DCFD01214FF223
:10343000040002F0D7FD0D214FF4304002F0D2FD20
:103440000D214BF2010002F0CDFD0D214BF20200E7
:1034500002F0C8FD34214FF4364002F0C3FD3421A0
:103460004BF2016002F0BEFD34214BF2026002F02B
:10347000B9FD0D214FF4314002F0B4FD0D214BF2A6
:10348000011002F0AFFD0D214BF2021002F0AAFD77
:1034900034214FF4374002F0A5FD34214BF2017086
:1034A00002F0A0FD34214BF2027002F09BFD0021DE
:1034B0004FF4324002F096FD00214BF2012002F061
:1034C00091FD00214BF2022002F08CFD24214FF4EB
:1034D000384002F087FD24214BF6010002F082FD06
:1034E00024214BF6020002F07DFD01214FF43F4004
:1034F00002F078FD0F214FF4334002F073FD00E03D
:10350000FDE30F214BF2013002F06CFD0F214BF275
:10351000023002F067FD34214FF4394002F062FDC1
:1035200034214BF6011002F05DFD34214BF6021000
:1035300002F058FD08214FF4354002F053FD0821F8
:103540004BF2015002F04EFD08214BF2025002F006
:1035500049FD03214FF4424002F044FD24214FF481
:103560003A4002F03FFD24214BF6012002F03AFDE3
:1035700024214BF6022002F035FD00214FF43C409F
:1035800002F030FD78214BF6014002F02BFD0021C6
:103590004BF6024002F026FD00214FF43D4002F0C0
:1035A00021FD78214BF6015002F01CFD00214BF665
:1035B000025002F017FD00214FF43E4002F012FDD0
:1035C00064214BF6016002F00DFD00214FF45140E3
:1035D00002F008FD33214DF2011002F003FD00213D
:1035E0004DF2021002F0FEFC34214DF2031002F005
:1035F000F9FC00214DF2041002F0F4FC3A214DF2E6
:10360000051002F0EFFC00214DF2061002F0EAFC7A
:103610004A214DF2071002F0E5FC00214DF208109E
:1036200002F0E0FC5C214DF2091002F0DBFC00210D
:103630004DF20A1002F0D6FC81214DF20B1002F07F
:10364000D1FC00214DF20C1002F0CCFCA6214DF271
:103650000D1002F0C7FC00214DF20E1002F0C2FC6A
:10366000E5214DF20F1002F0BDFC01214DF21010CA
:1036700002F0B8FC13214DF2111002F0B3FC01214D
:103680004DF2121002F0AEFC54214DF2131002F074
:10369000A9FC01214DF2141002F0A4FC82214DF28C
:1036A000151002F09FFC01214DF2161002F09AFC59
:1036B000CA214DF2171002F095FC02214DF21810AC
:1036C00002F090FC00214DF2191002F08BFC022157
:1036D0004DF21A1002F086FC01214DF21B1002F08F
:1036E00081FC02214DF21C1002F07CFC34214DF2D1
:1036F0001D1002F077FC02214DF21E1002F072FC48
:1037000067214DF21F1002F06DFC02214DF22010D6
:1037100002F068FC84214DF2211002F063FC0221CA
:103720004DF2221002F05EFCA4214DF2231002F0B3
:1037300059FC02214DF2241002F054FCB7214DF245
:10374000251002F04FFC02214DF2261002F04AFC37
:10375000CF214DF2271002F045FC02214DF2281036
:1037600002F040FCDE214DF2291002F03BFC022168
:103770004DF22A1002F036FCF2214DF22B1002F02D
:1037800031FC02214DF22C1002F02CFCFE214DF2F6
:103790002D1002F027FC03214DF22E1002F022FC26
:1037A00010214DF22F1002F01DFC03214DF23010BC
:1037B00002F018FC33214DF2311002F013FC03210A
:1037C0004DF2321002F00EFC6D214DF2331002F07A
:1037D00009FC00214FF4524002F004FC33214DF269
:1037E000012002F0FFFB00214DF2022002F0FAFB63
:1037F000342101E01A0400204DF2032002F0F2FB14
:1038000000214DF2042002F0EDFB3A214DF205209B
:1038100002F0E8FB00214DF2062002F0E3FB4A2112
:103820004DF2072002F0DEFB00214DF2082002F0ED
:10383000D9FB5C214DF2092002F0D4FB00214DF2AE
:103840000A2002F0CFFB81214DF20B2002F0CAFBCF
:1038500000214DF20C2002F0C5FBA6214DF20D20F7
:1038600002F0C0FB00214DF20E2002F0BBFBE5216F
:103870004DF20F2002F0B6FB01214DF2102002F0B4
:10388000B1FB13214DF2112002F0ACFB01214DF2EE
:10389000122002F0A7FB54214DF2132002F0A2FBEC
:1038A00001214DF2142002F09DFB82214DF21520E2
:1038B00002F098FB01214DF2162002F093FBCA2181
:1038C0004DF2172002F08EFB02214DF2182002F07B
:1038D00089FB00214DF2192002F084FB02214DF2F8
:1038E0001A2002F07FFB01214DF21B2002F07AFB2F
:1038F00002214DF21C2002F075FB34214DF21D20F7
:1039000002F070FB02214DF21E2002F06BFB6721DA
:103910004DF21F2002F066FB02214DF2202002F042
:1039200061FB84214DF2212002F05CFB02214DF26B
:10393000222002F057FBA4214DF2232002F052FB7B
:1039400002214DF2242002F04DFBB7214DF225203B
:1039500002F048FB02214DF2262002F043FBCF216A
:103960004DF2272002F03EFB02214DF2282002F00A
:1039700039FBDE214DF2292002F034FB02214DF209
:103980002A2002F02FFBF2214DF22B2002F02AFB1D
:1039900002214DF22C2002F025FBFE214DF22D20BC
:1039A00002F020FB03214DF22E2002F01BFB102120
:1039B0004DF22F2002F016FB03214DF2302002F0D1
:1039C00011FB33214DF2312002F00CFB03214DF2AB
:1039D000322002F007FB6D214DF2332002F002FB92
:1039E00000214FF4534002F0FDFA33214DF2013033
:1039F00002F0F8FA00214DF2023002F0F3FA34211D
:103A00004DF2033002F0EEFA00214DF2043002F0E4
:103A1000E9FA3A214DF2053002F0E4FA00214DF2C4
:103A2000063002F0DFFA4A214DF2073002F0DAFAEE
:103A300000214DF2083002F0D5FA5C214DF2093038
:103A400002F0D0FA00214DF20A3002F0CBFA8121C7
:103A50004DF20B3002F0C6FA00214DF20C3002F0AC
:103A6000C1FAA6214DF20D3002F0BCFA00214DF250
:103A70000E3002F0B7FAE5214DF20F3002F0B2FA43
:103A800001214DF2103002F0ADFA13214DF2113048
:103A900002F0A8FA01214DF2123002F0A3FA5421EB
:103AA0004DF2133002F09EFA01214DF2143002F073
:103AB00099FA82214DF2153002F094FA01214DF26B
:103AC000163002F08FFACA214DF2173002F08AFA4E
:103AD00002214DF2183002F085FA00214DF2193022
:103AE00002F080FA02214DF21A3002F07BFA012135
:103AF0004DF21B3002F076FA02214DF21C3002F03A
:103B000071FA34214DF21D3002F06CFA02214DF2AF
:103B10001E3002F067FA67214DF21F3002F062FAA0
:103B200002214DF2203002F05DFA84214DF2213065
:103B300002F058FA02214DF2223002F053FAA42189
:103B40004DF2233002F04EFA02214DF2243002F001
:103B500049FAB7214DF2253002F044FA02214DF224
:103B6000263002F03FFACF214DF2273002F03AFA28
:103B700002214DF2283002F035FADE214DF22930D3
:103B800002F030FA02214DF22A3002F02BFAF22133
:103B90004DF22B3002F026FA02214DF22C3002F0C9
:103BA00021FAFE214DF22D3002F01CFA03214DF2D4
:103BB0002E3002F017FA10214DF22F3002F012FAD7
:103BC00003214DF2303002F00DFA33214DF2313045
:103BD00002F008FA03214DF2323002F003FA6D21AF
:103BE0004DF2333002F0FEF900214FF4544002F060
:103BF000F9F933214DF2014002F0F4F900214DF2C0
:103C0000024002F0EFF934214DF2034002F0EAF9EC
:103C100000214DF2044002F0E5F93A214DF2054051
:103C200002F0E0F900214DF2064002F0DBF94A21F2
:103C30004DF2074002F0D6F900214DF2084002F0A3
:103C4000D1F95C214DF2094002F0CCF900214DF28E
:103C50000A4002F0C7F981214DF20B4002F0C2F98F
:103C600000214DF20C4002F0BDF9A6214DF20D40AD
:103C700002F0B8F900214DF20E4002F0B3F9E5214F
:103C80004DF20F4002F0AEF901214DF2104002F06A
:103C9000A9F913214DF2114002F0A4F901214DF2CE
:103CA000124002F09FF954214DF2134002F09AF9AC
:103CB00001214DF2144002F095F982214DF2154098
:103CC00002F090F901214DF2164002F08BF9CA2161
:103CD0004DF2174002F086F902214DF2184002F031
:103CE00081F900214DF2194002F07CF902214DF2D8
:103CF0001A4002F077F901214DF21B4000E006E383
:103D000002F070F902214DF21C4002F06BF93421EF
:103D10004DF21D4002F066F902214DF21E4002F004
:103D200061F967214DF21F4002F05CF902214DF26A
:103D3000204002F057F984214DF2214002F052F95F
:103D400002214DF2224002F04DF9A4214DF2234010
:103D500002F048F902214DF2244002F043F9B72164
:103D60004DF2254002F03EF902214DF2264002F0CC
:103D700039F9CF214DF2274002F034F902214DF2FA
:103D8000284002F02FF9DE214DF2294002F02AF9F5
:103D900002214DF22A4002F025F9F2214DF22B408A
:103DA00002F020F902214DF22C4002F01BF9FE2115
:103DB0004DF22D4002F016F903214DF22E4002F093
:103DC00011F910214DF22F4002F00CF903214DF2B0
:103DD000304002F007F933214DF2314002F002F990
:103DE00003214DF2324002F0FDF86D214DF23340D7
:103DF00002F0F8F800214FF4554002F0F3F83321B7
:103E00004DF2015002F0EEF800214DF2025002F0A6
:103E1000E9F834214DF2035002F0E4F800214DF2AC
:103E2000045002F0DFF83A214DF2055002F0DAF8C2
:103E300000214DF2065002F0D5F84A214DF207500C
:103E400002F0D0F800214DF2085002F0CBF85C21CE
:103E50004DF2095002F0C6F800214DF20A5002F06E
:103E6000C1F881214DF20B5002F0BCF800214DF257
:103E70000C5002F0B7F8A6214DF20D5002F0B2F846
:103E800000214DF20E5002F0ADF8E5214DF20F5039
:103E900002F0A8F801214DF2105002F0A3F813210E
:103EA0004DF2115002F09EF801214DF2125002F035
:103EB00099F854214DF2135002F094F801214DF27B
:103EC000145002F08FF882214DF2155002F08AF85A
:103ED00001214DF2165002F085F8CA214DF217501B
:103EE00002F080F802214DF2185002F07BF8002118
:103EF0004DF2195002F076F802214DF21A5002F0FC
:103F000071F801214DF21B5002F06CF802214DF2C4
:103F10001C5002F067F834214DF21D5002F062F897
:103F200002214DF21E5002F05DF867214DF21F5044
:103F300002F058F802214DF2205002F053F884218B
:103F40004DF2215002F04EF802214DF2225002F0C3
:103F500049F8A4214DF2235002F044F802214DF219
:103F6000245002F03FF8B7214DF2255002F03AF804
:103F700002214DF2265002F035F8CF214DF22750A4
:103F800002F030F802214DF2285002F02BF8DE2129
:103F90004DF2295002F026F802214DF22A5002F08B
:103FA00021F8F2214DF22B5002F01CF802214DF2C3
:103FB0002C5002F017F8FE214DF22D5002F012F8AD
:103FC00003214DF22E5002F00DF810214DF22F502A
:103FD00002F008F803214DF2305002F003F83321CB
:103FE0004DF2315001F0FEFF03214DF2325001F04D
:103FF000F9FF6D214DF2335001F0F4FF00214FF431
:10400000564001F0EFFF33214DF2016001F0EAFF6D
:1040100000214DF2026001F0E5FF34214DF2036012
:1040200001F0E0FF00214DF2046001F0DBFF3A21D6
:104030004DF2056001F0D6FF00214DF2066001F05F
:10404000D1FF4A214DF2076001F0CCFF00214DF273
:10405000086001F0C7FF5C214DF2096001F0C2FF6A
:1040600000214DF20A6001F0BDFF81214DF20B608D
:1040700001F0B8FF00214DF20C6001F0B3FFA62162
:104080004DF20D6001F0AEFF00214DF20E6001F027
:10409000A9FFE5214DF20F6001F0A4FF01214DF2CF
:1040A000106001F09FFF13214DF2116001F09AFFA3
:1040B00001214DF2126001F095FF54214DF2136081
:1040C00001F090FF01214DF2146001F08BFF82217D
:1040D0004DF2156001F086FF01214DF2166001F0EE
:1040E00081FFCA214DF2176001F07CFF02214DF2E1
:1040F000186001F077FF00214DF2196001F072FFA6
:1041000002214DF21A6001F06DFF01214DF21B609A
:1041100001F068FF02214DF21C6001F063FF3421C1
:104120004DF21D6001F05EFF02214DF21E6001F0B4
:1041300059FF67214DF21F6001F054FF02214DF23B
:10414000206001F04FFF84214DF2216001F04AFF11
:1041500002214DF2226001F045FFA4214DF22360BF
:1041600001F040FF02214DF2246001F03BFFB72136
:104170004DF2256001F036FF02214DF2266001F07C
:1041800031FFCF214DF2276001F02CFF02214DF2CB
:10419000286001F027FFDE214DF2296001F022FFA7
:1041A00002214DF22A6001F01DFFF2214DF22B6039
:1041B00001F018FF02214DF22C6001F013FFFE21E7
:1041C0004DF22D6001F00EFF03214DF22E6001F043
:1041D00009FF10214DF22F6001F004FF03214DF281
:1041E000306001F0FFFE33214DF2316001F0FAFE44
:1041F00003214DF2326001F0F5FE6D214DF2336086
:1042000001F0F0FE55214FF4704001F0EBFEAA21C1
:104210004FF2010001F0E6FE52214FF2020001F0E0
:10422000E1FE08214FF2030001F0DCFE00214FF215
:10423000040001F0D7FECC214FF4314001F0D2FE52
:1042400000214BF2011001F0CDFE05214FF4364064
:1042500001F0C8FE70214FF4374001F0C3FE702119
:104260004BF2017001F0BEFE01214FF4384001F025
:10427000B9FE03214BF6010001F0B4FE03214BF619
:10428000020001F0AFFE03214BF6030001F0AAFE8D
:1042900002214FF43C4001F0A5FE00214BF6014005
:1042A00001F0A0FE00214BF6024001F09BFED02160
:1042B0004FF4494001F096FE02214CF6011001F046
:1042C00091FE50214CF6021001F08CFE50214CF66C
:1042D000031001F087FE50214CF6041001F082FE1D
:1042E00000214FF4545001F07DFE55214FF46850E9
:1042F00001F078FE4FF4885001F064FE7820FDF75D
:1043000069FB4FF4245001F05DFE01F05EB9FE48F8
:10431000808849F2253188427ED147F6F001E520B8
:1043200001F060FE4FF48071012001F05BFE4FF45C
:10433000E061022001F056FE41F23001032001F05D
:1043400051FE0021042001F04DFE40F20221082020
:1043500001F048FE0021092001F044FE00210A205E
:1043600001F040FE00210C2001F03CFE00210D2058
:1043700001F038FE00210F2001F034FE0021102052
:1043800001F030FE0721112001F02CFE0021122047
:1043900001F028FE0021132001F024FE0021072057
:1043A00001F020FE41F29061102001F01BFE40F26E
:1043B0002721112001F016FE9D21122001F012FE8E
:1043C0004FF4C851132001F00DFE2521292001F0E2
:1043D00009FE0D212B2001F005FE0721302001F000
:1043E00001FE40F20331312001F0FCFD03213220B7
:1043F00001F0F8FD40F20621352001F0F3FD08211F
:10440000362001F0EFFD40F20641372001F0EAFDD1
:104410004FF44171382000E057E001F0E3FD07213F
:10442000392001F0DFFD40F202613C2001F0DAFDAD
:1044300008213D2001F0D6FD0021502001F0D2FDE1
:10444000EF21512001F0CEFD0021522001F0CAFDE4
:1044500040F23F11532001F0C5FD4FF42741602089
:1044600001F0C0FD0121612001F0BCFD00216A20A6
:1044700001F0B8FD0021802001F0B4FD0021812071
:1044800001F0B0FD0021822001F0ACFD002183206D
:1044900001F0A8FD0021842001F0A4FD0021852069
:1044A00001F0A0FD1021902001F09CFD4FF4C061AF
:1044B000922001F097FD40F23311072001F092FDA8
:1044C0002221002001F08EFD1FE78F48808849F2ED
:1044D000283188427ED141F28F01EC2001F082FD2B
:1044E00041F23421EF2001F07DFD4FF48071012075
:1044F00001F078FD4FF4E061022001F073FD41F21C
:104500003001032001F06EFD0021042001F06AFD5E
:1045100040F20221082001F065FD0021092001F090
:1045200061FD00210A2001F05DFD01210C2001F058
:1045300059FD00210D2001F055FD00210F2001F053
:1045400051FD0021102001F04DFD0721112001F047
:1045500049FD0021122001F045FD0021132001F04A
:1045600041FD0121072001F03DFD3220FDF729FA30
:1045700041F29041102001F035FD40F22721112039
:1045800001F030FD3220FDF71CFA8A21122001F0E3
:1045900029FD3220FDF715FA4FF4D051132001F018
:1045A00021FD0621292001F01DFD0D212B2001F008
:1045B00019FD3220FDF705FA0021202001F012FD3F
:1045C0000021212001F00EFD3220FDF7FAF9002133
:1045D000302000E074E001F005FD40F2046131207C
:1045E00001F000FD40F20531322001F0FBFC00211A
:1045F000352001F0F7FC40F60941362001F0F2FCCD
:104600004FF40171372001F0EDFC40F20131382008
:1046100001F0E8FC40F20771392001F0E3FC0021D1
:104620003C2001F0DFFC40F60A213D2001F0DAFCDD
:104630003220FDF7C6F90021502001F0D3FCEF2114
:10464000512001F0CFFC0021522001F0CBFC40F2C0
:104650003F11532001F0C6FC4FF42741602001F0C8
:10466000C1FC0121612001F0BDFC00216A2001F0A4
:10467000B9FC0021802001F0B5FC0021812001F06F
:10468000B1FC0021822001F0ADFC0021832001F06B
:10469000A9FC0021842001F0A5FC0021852001F067
:1046A000A1FC1021902001F09DFC4FF4C0619220EC
:1046B00001F098FC40F23311072001F093FC24E64E
:1046C0001148808849F2203188427DD10021084676
:1046D00001F088FC4FF48071012001F083FC4FF45D
:1046E000E061022001F07EFC41F23001032001F084
:1046F00079FC0021042001F075FC40F20221082021
:1047000001F070FC002101E01A040020092001F0F2
:1047100069FC00210A2001F065FC01210C2001F058
:1047200061FC00210D2001F05DFC00210F2001F053
:1047300059FC3220FDF745F940F20111072001F044
:1047400051FC3220FDF73DF94FF48651102001F065
:1047500049FC0721112001F045FC4FF4887112201B
:1047600001F040FC4FF43061132001F03BFC0021CC
:10477000292001F037FC44F210012B2001F032FC1B
:104780000021502001F02EFCEF21512001F02AFCE5
:104790000021522001F026FC40F23F11532001F08D
:1047A00021FC4FF41C51602001F01CFC0121612010
:1047B00001F018FC00216A2001F014FC0021802087
:1047C00001F010FC002100E031E0812001F00AFC42
:1047D0000021822001F006FC0021832001F002FC70
:1047E0000021842001F0FEFB0021852001F0FAFB6E
:1047F0001021902001F0F6FB0021922001F0F2FB45
:104800000121932001F0EEFB4FF48871952001F017
:10481000E9FB0021972001F0E5FB0021982001F041
:10482000E1FB40F27311072001F0DCFB6DE5FE486F
:10483000808849F2313188427DD141F21401E7206C
:1048400001F0D0FB4FF48071012001F0CBFB4FF45D
:104850000071022001F0C6FB41F23801032001F093
:10486000C1FB40F20221082001F0BCFB002109201D
:1048700001F0B8FB00210A2001F0B4FB00210C205C
:1048800001F0B0FB00210D2001F0ACFB00210F2056
:1048900001F0A8FB0021102001F0A4FB072111204A
:1048A00001F0A0FB0021122001F09CFB002113204D
:1048B00001F098FBC820FDF784F841F290611020C8
:1048C00001F090FB40F22721112001F08BFB3220F8
:1048D000FDF777F80C21122001F084FB3220FDF760
:1048E00070F84FF40061132001F07CFB11212920A6
:1048F00001F078FB0B212B2001F074FB3220FDF737
:1049000060F80021202001F06DFB40F23F112120D2
:1049100001F068FB0021302001F064FB4FF483714B
:10492000312001F05FFB0021322001F05BFB4FF4EE
:104930000171352000E064E001F054FB41F20A61AE
:10494000362001F04FFB40F20771372001F04AFB9F
:104950004FF48371382001F045FB40F20771392094
:1049600001F040FB40F202413C2001F03BFB40F6ED
:104970000F413D2001F036FB0021502001F032FBB9
:10498000EF21512001F02EFB0021522001F02AFBE3
:1049900040F23F11532001F025FB4FF41C516020E1
:1049A00001F020FB0121612001F01CFB00216A20A5
:1049B00001F018FB0021802001F014FB0021812070
:1049C00001F010FB0021822001F00CFB002183206C
:1049D00001F008FB0021842001F004FB0021852068
:1049E00001F000FB1021902001F0FCFA4FF4C061AF
:1049F000922001F0F7FA40F23311072001F0F2FAA9
:104A000083E48948808845F2084188427ED14FF48A
:104A10008071012001F0E6FA4FF4E061022001F01C
:104A2000E1FA41F23001032001F0DCFA0021042018
:104A300001F0D8FA40F20721082001F0D3FA002152
:104A4000092001F0CFFA00210A2001F0CBFA002161
:104A50000C2001F0C7FA00210D2001F0C3FA00215B
:104A60000F2001F0BFFA1420FCF7ABFF41F2B06158
:104A7000102001F0B7FA0121112001F0B3FA012151
:104A8000172001F0AFFA4FF49C71122001F0AAFA3E
:104A90004FF40061132001F0A5FA0921292001F04B
:104AA000A1FA09212A2001F09DFA0021A42001F099
:104AB00099FA0021502001F095FAEF21512001F0E0
:104AC00091FA0021522001F08DFA40F23F1153205B
:104AD00001F088FA4FF41C51602001F083FA0121A3
:104AE000612001F07FFA00216A2001F07BFA0021A9
:104AF000802001F077FA0021812001F073FA002173
:104B0000822001F06FFA0021832000E023E001F011
:104B100069FA0021842001F065FA0021852001F066
:104B200061FA1321902001F05DFA0021922001F03A
:104B300059FA0321932001F055FA4FF4887195201A
:104B400001F050FA40F27311072001F04BFA3220C5
:104B5000FCF737FFB8E43448808841F205518842B9
:104B60007ED10021072001F03DFA3220FCF729FF19
:104B70004FF48E71122001F035FA0121A42001F0CA
:104B800031FA0F21082001F02DFA08210A2001F046
:104B900029FA08210D2001F025FA40F20771302092
:104BA00001F020FA0721312001F01CFA40F20361E4
:104BB000322001F017FA4FF4E061332001F012FACD
:104BC00040F20221342001F00DFA0221352001F0DB
:104BD00009FA41F60F71362001F004FA40F207712C
:104BE000372001F0FFF90021382001F0FBF9002106
:104BF000392001F0F7F940F207713A2001F0F2F99B
:104C000000213B2001F0EEF907213C2001F0EAF9F8
:104C100000213D2001F0E6F93220FCF7D2FE01210F
:104C2000072001F0DFF901E01A040020012117201C
:104C300001F0D8F93220FCF7C4FE4FF4BD5110202A
:104C400001F0D0F940F21721112001F0CBF94FF417
:104C50008F71122001F0C6F94FF47061132000E04B
:104C600097E001F0BFF900212A2001F0BBF90A21E9
:104C7000292001F0B7F94FF49F71122001F0B2F929
:104C80000021502001F0AEF9EF21512001F0AAF9E6
:104C90000021522001F0A6F940F23F11532001F00B
:104CA000A1F94FF41C51602001F09CF90121612011
:104CB00001F098F900216A2001F094F90021802088
:104CC00001F090F90021812001F08CF9002182206F
:104CD00001F088F90021832001F084F9002184206B
:104CE00001F080F90021852001F07CF9132190204A
:104CF00001F078F94FF44071922001F073F9052129
:104D0000932001F06FF90021952001F06BF900214B
:104D1000972001F067F90021982001F063F94FF422
:104D20008071012001F05EF94FF4E061022001F092
:104D300059F941F23801032001F054F9002104200F
:104D400001F050F900210C2001F04CF900210F2056
:104D500001F048F90021202001F044F90021212030
:104D600001F040F92121072001F03CF91420FCF763
:104D700028FE6121072001F035F91420FCF721FEFF
:104D800040F27311072001F02DF91420FCF719FEF1
:104D900095E4FE4880884BF2055188427ED100217F
:104DA000084601F01FF90021084601F01BF9002117
:104DB000084601F017F90021084601F013F9012116
:104DC000A42001F00FF91420FCF7FBFD4FF41C5157
:104DD000602001F007F940F20221082001F002F9F9
:104DE0004FF40571302001F0FDF843F215713120C8
:104DF00001F0F8F840F20461322001F0F3F840F6D7
:104E00001661332001F0EEF842F21121342001F056
:104E1000E9F84FF4A851352001F0E4F848F20751C1
:104E2000362001F0DFF841F20741372001F0DAF8CF
:104E300041F20341382001F0D5F82021392001F05A
:104E4000D1F81A21902001F0CDF80021102001F0B6
:104E5000C9F80721112001F0C5F80021122001F046
:104E6000C1F80021132001F0BDF81420FCF7A9FDC2
:104E70004FF4E661102001F0B5F840F2371111202F
:104E800001F0B0F81420FCF79CFD4FF4DC71122007
:104E900001F0A8F81420FCF794FD00E083E04FF443
:104EA0007061132001F09EF880212A2001F09AF809
:104EB0004821292001F096F81420FCF782FD4FF4D8
:104EC0008071012001F08EF84FF4E061022001F0C2
:104ED00089F841F23801032001F084F840F2022100
:104EE000082001F07FF800210A2001F07BF8002162
:104EF0000C2001F077F800210D2001F073F830212B
:104F00000E2001F06FF80021502001F06BF8EF2126
:104F1000512001F067F80021522001F063F840F2BF
:104F20003F11532001F05EF84FF41C51602001F056
:104F300059F80121612001F055F800216A2001F0A3
:104F400051F81121902001F04DF84FF4C0619220EA
:104F500001F048F840F20241932001F043F80221A9
:104F6000942001F03FF81420FCF72BFD01210720CD
:104F700001F038F81420FCF724FD6121072001F02E
:104F800031F840F27311072001F02CF800212020A5
:104F900001F028F80021212001F024F8222100202E
:104FA00001F020F811E3794880884CF205518842DD
:104FB0007ED10021084601F015F80021084601F0D5
:104FC00011F81420FCF7FDFC0021084601F00AF856
:104FD0000021084601F006F80021084601F002F819
:104FE0000021084600F0FEFF0121A42000F0FAFF96
:104FF0001420FCF7E6FC4FF41C51602000F0F2FF97
:1050000040F60601082000F0EDFF40F20371302069
:1050100000F0E8FF0121312000F0E4FF04213220FC
:1050200000F0E0FF4FF48171332000F0DBFF4FF41C
:105030004071342000F0D6FF40F20311352000F01B
:10504000D1FF1F21362000F0CDFF40F20371372041
:1050500000F0C8FF0121382000F0C4FF04213920EE
:1050600000F0C0FF1521902000F0BCFF4FF48261DA
:10507000102000F0B7FF40F24721112000F0B2FFEE
:105080004FF4DE71122000F0ADFF4FF46061132089
:1050900000F0A8FF7820FCF794FC4FF48071012009
:1050A00000F0A0FF4FF40071022000F09BFF00E031
:1050B00050E041F23001032000F094FF08210A2063
:1050C00000F090FF00210C2000F08CFF20210E202A
:1050D00000F088FF00210F2000F084FF0021202035
:1050E00000F080FF0021212000F07CFF3D212A20DC
:1050F00000F078FF1420FCF764FC2D21292000F03B
:1051000071FF0021502000F06DFF4DF2EF015120A2
:1051100000F068FF0021522000F064FF40F23F11D0
:10512000532000F05FFF0021612000F05BFF0021B1
:105130006A2000F057FF4FF44071922000F052FFB8
:105140000521932000F04EFF4FF48071072000F0FE
:1051500049FF3AE20D48808844F2315188427CD1BF
:105160000121002000F03EFF0A20FCF72AFC41F25A
:105170002861102000F036FF0E21122000F032FFCF
:1051800040F63921132000F02DFF01E01A04002021
:105190000A20FCF716FC4021112000F023FF5021CB
:1051A000152000F01FFF0A20FCF70BFC1E21122027
:1051B00000F018FF0A20FCF704FC4FF4B151102056
:1051C00000F010FF42F63921132000F00BFF0A20F7
:1051D000FCF7F7FB4FF48071012000F003FF4FF460
:1051E0004071022000F0FEFE41F23801032000F081
:1051F000F9FE40F20221082000F0F4FE08210A2006
:1052000000F0F0FE0021302000F0ECFE40F2024100
:10521000312000F0E7FE4FF48371322000F0E2FE0F
:1052200040F20351332000F0DDFE4FF48271342050
:1052300000F0D8FE40F20131352000F0D3FE40F2FC
:105240000771362000F0CEFE40F20531372000F025
:10525000C9FE4FF40271382000E040E000F0C2FEC9
:1052600040F60B71392000F0BDFE0221412000F014
:10527000B9FE4FF41C51602000F0B4FE0121612002
:1052800000F0B0FE4FF40471902000F0ABFE4FF43C
:105290008571922000F0A6FE0421932000F0A2FE6A
:1052A0004FF48071A02000F09DFE0121072000F046
:1052B00099FE2121072000F095FE2321072000F010
:1052C00091FE3321072000F08DFE40F233110720BC
:1052D00000F088FE0021A02000F084FE75E1BB48AC
:1052E000808844F2355188427ED13021152000F06B
:1052F00079FE10219A2000F075FE2021112000F087
:1053000071FE43F22841102000F06CFE02211220B1
:1053100000F068FE41F23801132000F063FE2820FF
:10532000FCF74FFB1221084600F05CFE2820FCF73A
:1053300048FB43F22041102000F054FE43F23801B4
:10534000132000F04FFE4620FCF73BFB00213020ED
:1053500000F048FE40F20241312000F043FE40F2EE
:105360000731322000F03EFE4FF44171332000F04F
:1053700039FE0421342000F035FE40F20141352091
:1053800000F030FE40F20771362000F02BFE40F2B4
:105390000531372000F026FE4FF4C261382000F0BE
:1053A00021FE4FF4C261392000F01CFE4FF48071E1
:1053B000012000F017FE4FF44071022000F012FEB1
:1053C00041F23001032000F00DFE40F608010820F4
:1053D00000F008FE08210A2000F004FE4FF41C51E2
:1053E000602000F0FFFD00E031E00121612000F0CD
:1053F000F9FD4FF49F71902000F0F4FD4FF480719F
:10540000922000F0EFFD4FF48071932000F0EAFD50
:105410004FF44051A02000F0E5FD1021A32000F042
:10542000E1FD0121072000F0DDFD2121072000F032
:10543000D9FD2321072000F0D5FD3321072000F0FE
:10544000D1FD40F23311072000F0CCFDBDE05F48F4
:10545000808841F663118842F8D1E22000F0B2FD65
:105460001D2000F0A9FD022000F0A6FD042000F0A0
:10547000A3FD6420FCF7AEFAE02000F0A3FD0120BC
:1054800000F09AFD0A20FCF79CFAE02000F09AFD5B
:10549000032000F091FD0C20FCF793FA012000F0AE
:1054A00091FD0A20FCF78DFAE62000F08BFD2F20FD
:1054B00000F082FDFF2000F07FFDFF2000F07CFD6A
:1054C000B02000F07FFD202000F076FD002000F0ED
:1054D00073FD032000F070FD40F21F3000F06CFD02
:1054E000012000F069FD40F2DF1000F065FD0020B2
:1054F00000F062FDB42000F065FD042000F05CFDCA
:1055000040F21F4000F058FD002000F055FD2E2015
:1055100000F052FD002000F04FFD002000F04CFD97
:10552000002000F049FD002000F046FDB62000F00C
:1055300049FD022000F040FD4FF4037000F03CFDF7
:10554000002000F039FD172000F036FD152000F096
:1055500033FD002000F030FD002000F02DFDF02094
:1055600000F030FD032000F027FD292000F02AFD87
:10557000D02000F027FD002000F01EFDBE2000F02E
:1055800021FD052000F018FDFE2000F015FD012092
:1055900000F012FD002000F00FFD002000F00CFDD7
:1055A000002000F009FDB82000F00CFD032000F001
:1055B00003FD012000F000FDBA2000F003FD0120F2
:1055C00000F0FAFC642000F083FA10BD1A040020F9
:1055D00010B50446002C66D16C498871F020088013
:1055E0004FF4A07048800846808849F241318842D3
:1055F0000BD06648808846F60401884205D063488F
:10560000808845F2103188421AD12C205F490881E8
:105610002A2048812B2088810846808846F604018C
:10562000884205D05948808845F21031884206D119
:105630004FF4A070554908804FF4F0704880A1E005
:105640005248808845F21051884210D14FF43050B2
:105650004E4908814FF4285048814FF42C508881DE
:105660004FF4F07008804FF4487048808AE0474853
:10567000808841F6631188420DD12C20434908816E
:105680002B2048812A2088814FF4F07008804FF445
:105690004870488076E022203C49088120204881DB
:1056A000212088816EE00120384988714FF4A07074
:1056B0000880F02048800846808849F241318842BD
:1056C00005D03248808845F21031884207D12C201D
:1056D0002E4908812A2048812B2088813FE02B48D1
:1056E000808846F60401884207D12C20274908818A
:1056F0002B2048812A20888131E02448808845F287
:105700001051884210D14FF43050204908814FF495
:10571000285048814FF42C5088814FF448700880FD
:105720004FF4F07048801AE01848808841F6631101
:1057300088420DD12C20154908812A2048812B2030
:1057400088814FF4487008804FF4F070488006E07C
:1057500022200E49088121204881202088810B4881
:10576000808846F60401884205D00848808845F2C2
:105770001031884206D14FF4F070044908804FF48C
:10578000A0704880002000F0CDF910BD1A04002060
:1057900000B59DB00121080201F0A4F90120079095
:1057A000002008900F20099000200A900B900C9088
:1057B0000D9000900190032002900020039004902F
:1057C0000590069006200E9000200F90109010205B
:1057D00011900020129014901390159016904FF491
:1057E00080501790002018904FF4804019900020AE
:1057F0001A9007A81B90CDF870D00EA8FCF78CF972
:1058000001210620FCF76EF91DB000BD08B501218D
:105810004FF4B47001F086F90120ADF800001020BB
:105820008DF8030003208DF8020069461648FCF746
:1058300017FA4CF23370ADF8000018208DF8030011
:1058400003208DF8020069461048FCF709FA4FF66C
:105850008070ADF8000018208DF8030003208DF84B
:10586000020069460A48FCF7FBF941F20100ADF875
:10587000000018208DF8030003208DF8020069460F
:105880000448FCF7EDF908BD000C0140001401408C
:10589000001801400020014010B5FFF7B7FFFFF7E7
:1058A00077FF3220FCF78DF800F01AF8FCF750FC77
:1058B0000020FFF78DFE01210348FCF770FA4FF638
:1058C000FF70FCF7DFFB10BD000C014008B503487A
:1058D00000880090BDF8000008BD00000008006CC2
:1058E00010B5002000F0E8F86E49888008468088EE
:1058F000FF280ADB084680884FF6FF71884204D0F3
:1059000068488088B0F5134F7ED1D32000F05AFB51
:10591000FFF7DCFF63498880FFF7D8FF6149888083
:10592000FFF7D4FF5F498880084680884FF6FF71F3
:1059300001EA00205B498880FFF7C8FF5949898840
:105940000843584988800846808849F24131884296
:105950005AD0BF2000F036FBFFF7B8FF51498880CE
:10596000FFF7B4FF4F498880FFF7B0FF4D498880AB
:10597000FFF7ACFF4B498880084680884FF6FF71DF
:1059800001EA002047498880FFF7A0FF4549898840
:105990000843444988800846808846F604018842C6
:1059A0007AD0D42000F00EFBFFF790FF3D498880AD
:1059B000FFF78CFF3B498880FFF788FF39498880D3
:1059C000084680884FF6FF7101EA0020354988803B
:1059D000FFF77CFF334989880843324988800846AD
:1059E000808845F21031884256D04FF45A4000F07A
:1059F000E9FAFFF76BFF2B4988804FF45B4000F01A
:105A0000E1FAFFF763FF00E046E026498880084698
:105A100080884FF6FF7101EA0020224988804FF408
:105A20005C4000F0CFFAFFF751FF1E498988084318
:105A30001C49888008468088B0F5004F02D145F2A5
:105A4000105088801748808845F21051884223D032
:105A5000A12000F0B7FAFFF739FF12498880FFF75D
:105A600035FF10498880084680884FF6FF7101EAAB
:105A700000200C498880FFF729FF0A4989880843DC
:105A8000084988800846808845F26171884203D1C0
:105A900041F66310034988800248818802A002F021
:105AA00093FB10BD1A0400206C6364206964A3BAE0
:105AB00025580D0A0000000010B50446204600F0ED
:105AC00081FA0520FBF786FFFFF700FF10BD0000FD
:105AD0002DE9F0470446BE2000F074FA052000F0DE
